{
  "_format": "hh-sol-artifact-1",
  "contractName": "NFTMINTER",
  "sourceName": "contracts/NFT_Minter.sol",
  "abi": [
    {
      "inputs": [],
      "stateMutability": "nonpayable",
      "type": "constructor"
    },
    {
      "anonymous": false,
      "inputs": [
        {
          "indexed": true,
          "internalType": "address",
          "name": "owner",
          "type": "address"
        },
        {
          "indexed": true,
          "internalType": "address",
          "name": "approved",
          "type": "address"
        },
        {
          "indexed": true,
          "internalType": "uint256",
          "name": "tokenId",
          "type": "uint256"
        }
      ],
      "name": "Approval",
      "type": "event"
    },
    {
      "anonymous": false,
      "inputs": [
        {
          "indexed": true,
          "internalType": "address",
          "name": "owner",
          "type": "address"
        },
        {
          "indexed": true,
          "internalType": "address",
          "name": "operator",
          "type": "address"
        },
        {
          "indexed": false,
          "internalType": "bool",
          "name": "approved",
          "type": "bool"
        }
      ],
      "name": "ApprovalForAll",
      "type": "event"
    },
    {
      "anonymous": false,
      "inputs": [
        {
          "indexed": true,
          "internalType": "address",
          "name": "_from",
          "type": "address"
        },
        {
          "indexed": false,
          "internalType": "uint256",
          "name": "_value",
          "type": "uint256"
        }
      ],
      "name": "Minted",
      "type": "event"
    },
    {
      "anonymous": false,
      "inputs": [
        {
          "indexed": true,
          "internalType": "address",
          "name": "previousOwner",
          "type": "address"
        },
        {
          "indexed": true,
          "internalType": "address",
          "name": "newOwner",
          "type": "address"
        }
      ],
      "name": "OwnershipTransferred",
      "type": "event"
    },
    {
      "anonymous": false,
      "inputs": [
        {
          "indexed": true,
          "internalType": "address",
          "name": "from",
          "type": "address"
        },
        {
          "indexed": true,
          "internalType": "address",
          "name": "to",
          "type": "address"
        },
        {
          "indexed": true,
          "internalType": "uint256",
          "name": "tokenId",
          "type": "uint256"
        }
      ],
      "name": "Transfer",
      "type": "event"
    },
    {
      "inputs": [
        {
          "internalType": "address",
          "name": "to",
          "type": "address"
        },
        {
          "internalType": "uint256",
          "name": "tokenId",
          "type": "uint256"
        }
      ],
      "name": "approve",
      "outputs": [],
      "stateMutability": "nonpayable",
      "type": "function"
    },
    {
      "inputs": [
        {
          "internalType": "address",
          "name": "owner",
          "type": "address"
        }
      ],
      "name": "balanceOf",
      "outputs": [
        {
          "internalType": "uint256",
          "name": "",
          "type": "uint256"
        }
      ],
      "stateMutability": "view",
      "type": "function"
    },
    {
      "inputs": [
        {
          "internalType": "uint256",
          "name": "_tokenId",
          "type": "uint256"
        }
      ],
      "name": "buildMetadata",
      "outputs": [
        {
          "internalType": "string",
          "name": "",
          "type": "string"
        }
      ],
      "stateMutability": "view",
      "type": "function"
    },
    {
      "inputs": [
        {
          "internalType": "uint256",
          "name": "tokenId",
          "type": "uint256"
        }
      ],
      "name": "getApproved",
      "outputs": [
        {
          "internalType": "address",
          "name": "",
          "type": "address"
        }
      ],
      "stateMutability": "view",
      "type": "function"
    },
    {
      "inputs": [
        {
          "internalType": "address",
          "name": "owner",
          "type": "address"
        },
        {
          "internalType": "address",
          "name": "operator",
          "type": "address"
        }
      ],
      "name": "isApprovedForAll",
      "outputs": [
        {
          "internalType": "bool",
          "name": "",
          "type": "bool"
        }
      ],
      "stateMutability": "view",
      "type": "function"
    },
    {
      "inputs": [
        {
          "internalType": "string",
          "name": "_title",
          "type": "string"
        },
        {
          "internalType": "string",
          "name": "_description",
          "type": "string"
        },
        {
          "internalType": "string",
          "name": "_img",
          "type": "string"
        },
        {
          "internalType": "uint256",
          "name": "_mintAmount",
          "type": "uint256"
        }
      ],
      "name": "mint",
      "outputs": [],
      "stateMutability": "payable",
      "type": "function"
    },
    {
      "inputs": [],
      "name": "name",
      "outputs": [
        {
          "internalType": "string",
          "name": "",
          "type": "string"
        }
      ],
      "stateMutability": "view",
      "type": "function"
    },
    {
      "inputs": [
        {
          "internalType": "uint256",
          "name": "",
          "type": "uint256"
        }
      ],
      "name": "nfts",
      "outputs": [
        {
          "internalType": "string",
          "name": "title",
          "type": "string"
        },
        {
          "internalType": "string",
          "name": "description",
          "type": "string"
        },
        {
          "internalType": "string",
          "name": "img",
          "type": "string"
        }
      ],
      "stateMutability": "view",
      "type": "function"
    },
    {
      "inputs": [],
      "name": "owner",
      "outputs": [
        {
          "internalType": "address",
          "name": "",
          "type": "address"
        }
      ],
      "stateMutability": "view",
      "type": "function"
    },
    {
      "inputs": [
        {
          "internalType": "uint256",
          "name": "tokenId",
          "type": "uint256"
        }
      ],
      "name": "ownerOf",
      "outputs": [
        {
          "internalType": "address",
          "name": "",
          "type": "address"
        }
      ],
      "stateMutability": "view",
      "type": "function"
    },
    {
      "inputs": [],
      "name": "renounceOwnership",
      "outputs": [],
      "stateMutability": "nonpayable",
      "type": "function"
    },
    {
      "inputs": [
        {
          "internalType": "address",
          "name": "from",
          "type": "address"
        },
        {
          "internalType": "address",
          "name": "to",
          "type": "address"
        },
        {
          "internalType": "uint256",
          "name": "tokenId",
          "type": "uint256"
        }
      ],
      "name": "safeTransferFrom",
      "outputs": [],
      "stateMutability": "nonpayable",
      "type": "function"
    },
    {
      "inputs": [
        {
          "internalType": "address",
          "name": "from",
          "type": "address"
        },
        {
          "internalType": "address",
          "name": "to",
          "type": "address"
        },
        {
          "internalType": "uint256",
          "name": "tokenId",
          "type": "uint256"
        },
        {
          "internalType": "bytes",
          "name": "_data",
          "type": "bytes"
        }
      ],
      "name": "safeTransferFrom",
      "outputs": [],
      "stateMutability": "nonpayable",
      "type": "function"
    },
    {
      "inputs": [
        {
          "internalType": "address",
          "name": "operator",
          "type": "address"
        },
        {
          "internalType": "bool",
          "name": "approved",
          "type": "bool"
        }
      ],
      "name": "setApprovalForAll",
      "outputs": [],
      "stateMutability": "nonpayable",
      "type": "function"
    },
    {
      "inputs": [
        {
          "internalType": "bytes4",
          "name": "interfaceId",
          "type": "bytes4"
        }
      ],
      "name": "supportsInterface",
      "outputs": [
        {
          "internalType": "bool",
          "name": "",
          "type": "bool"
        }
      ],
      "stateMutability": "view",
      "type": "function"
    },
    {
      "inputs": [],
      "name": "symbol",
      "outputs": [
        {
          "internalType": "string",
          "name": "",
          "type": "string"
        }
      ],
      "stateMutability": "view",
      "type": "function"
    },
    {
      "inputs": [
        {
          "internalType": "uint256",
          "name": "index",
          "type": "uint256"
        }
      ],
      "name": "tokenByIndex",
      "outputs": [
        {
          "internalType": "uint256",
          "name": "",
          "type": "uint256"
        }
      ],
      "stateMutability": "view",
      "type": "function"
    },
    {
      "inputs": [
        {
          "internalType": "address",
          "name": "owner",
          "type": "address"
        },
        {
          "internalType": "uint256",
          "name": "index",
          "type": "uint256"
        }
      ],
      "name": "tokenOfOwnerByIndex",
      "outputs": [
        {
          "internalType": "uint256",
          "name": "",
          "type": "uint256"
        }
      ],
      "stateMutability": "view",
      "type": "function"
    },
    {
      "inputs": [
        {
          "internalType": "uint256",
          "name": "_tokenId",
          "type": "uint256"
        }
      ],
      "name": "tokenURI",
      "outputs": [
        {
          "internalType": "string",
          "name": "",
          "type": "string"
        }
      ],
      "stateMutability": "view",
      "type": "function"
    },
    {
      "inputs": [],
      "name": "totalSupply",
      "outputs": [
        {
          "internalType": "uint256",
          "name": "",
          "type": "uint256"
        }
      ],
      "stateMutability": "view",
      "type": "function"
    },
    {
      "inputs": [
        {
          "internalType": "address",
          "name": "from",
          "type": "address"
        },
        {
          "internalType": "address",
          "name": "to",
          "type": "address"
        },
        {
          "internalType": "uint256",
          "name": "tokenId",
          "type": "uint256"
        }
      ],
      "name": "transferFrom",
      "outputs": [],
      "stateMutability": "nonpayable",
      "type": "function"
    },
    {
      "inputs": [
        {
          "internalType": "address",
          "name": "newOwner",
          "type": "address"
        }
      ],
      "name": "transferOwnership",
      "outputs": [],
      "stateMutability": "nonpayable",
      "type": "function"
    },
    {
      "inputs": [],
      "name": "withdraw",
      "outputs": [],
      "stateMutability": "payable",
      "type": "function"
    }
  ],
  "bytecode": "0x60806040523480156200001157600080fd5b506040518060400160405280600a81526020017f4e4654204d494e544552000000000000000000000000000000000000000000008152506040518060400160405280600681526020017f4e46544d4e540000000000000000000000000000000000000000000000000000815250816000908051906020019062000096929190620001a6565b508060019080519060200190620000af929190620001a6565b505050620000d2620000c6620000d860201b60201c565b620000e060201b60201c565b620002bb565b600033905090565b6000600a60009054906101000a900473ffffffffffffffffffffffffffffffffffffffff16905081600a60006101000a81548173ffffffffffffffffffffffffffffffffffffffff021916908373ffffffffffffffffffffffffffffffffffffffff1602179055508173ffffffffffffffffffffffffffffffffffffffff168173ffffffffffffffffffffffffffffffffffffffff167f8be0079c531659141344cd1fd0a4f28419497f9722a3daafe3b4186f6b6457e060405160405180910390a35050565b828054620001b49062000256565b90600052602060002090601f016020900481019282620001d8576000855562000224565b82601f10620001f357805160ff191683800117855562000224565b8280016001018555821562000224579182015b828111156200022357825182559160200191906001019062000206565b5b50905062000233919062000237565b5090565b5b808211156200025257600081600090555060010162000238565b5090565b600060028204905060018216806200026f57607f821691505b602082108114156200028657620002856200028c565b5b50919050565b7f4e487b7100000000000000000000000000000000000000000000000000000000600052602260045260246000fd5b613f5180620002cb6000396000f3fe6080604052600436106101405760003560e01c80634f6ccce7116100b6578063a22cb4651161006f578063a22cb46514610456578063b88d4fde1461047f578063c87b56dd146104a8578063e985e9c5146104e5578063edf8770414610522578063f2fde38b1461055f57610140565b80634f6ccce7146103325780636352211e1461036f57806370a08231146103ac578063715018a6146103e95780638da5cb5b1461040057806395d89b411461042b57610140565b806323b872dd1161010857806323b872dd1461023e578063265aa621146102675780632f745c59146102a657806331b6475c146102e35780633ccfd60b146102ff57806342842e0e1461030957610140565b806301ffc9a71461014557806306fdde0314610182578063081812fc146101ad578063095ea7b3146101ea57806318160ddd14610213575b600080fd5b34801561015157600080fd5b5061016c60048036038101906101679190612b83565b610588565b60405161017991906131bc565b60405180910390f35b34801561018e57600080fd5b50610197610602565b6040516101a491906131d7565b60405180910390f35b3480156101b957600080fd5b506101d460048036038101906101cf9190612c80565b610694565b6040516101e19190613155565b60405180910390f35b3480156101f657600080fd5b50610211600480360381019061020c9190612b47565b610719565b005b34801561021f57600080fd5b50610228610831565b6040516102359190613485565b60405180910390f35b34801561024a57600080fd5b5061026560048036038101906102609190612a41565b61083e565b005b34801561027357600080fd5b5061028e60048036038101906102899190612c80565b61089e565b60405161029d939291906131f9565b60405180910390f35b3480156102b257600080fd5b506102cd60048036038101906102c89190612b47565b610a60565b6040516102da9190613485565b60405180910390f35b6102fd60048036038101906102f89190612bd5565b610b05565b005b610307610c6d565b005b34801561031557600080fd5b50610330600480360381019061032b9190612a41565b610d69565b005b34801561033e57600080fd5b5061035960048036038101906103549190612c80565b610d89565b6040516103669190613485565b60405180910390f35b34801561037b57600080fd5b5061039660048036038101906103919190612c80565b610e20565b6040516103a39190613155565b60405180910390f35b3480156103b857600080fd5b506103d360048036038101906103ce91906129dc565b610ed2565b6040516103e09190613485565b60405180910390f35b3480156103f557600080fd5b506103fe610f8a565b005b34801561040c57600080fd5b50610415611012565b6040516104229190613155565b60405180910390f35b34801561043757600080fd5b5061044061103c565b60405161044d91906131d7565b60405180910390f35b34801561046257600080fd5b5061047d60048036038101906104789190612b0b565b6110ce565b005b34801561048b57600080fd5b506104a660048036038101906104a19190612a90565b6110e4565b005b3480156104b457600080fd5b506104cf60048036038101906104ca9190612c80565b611146565b6040516104dc91906131d7565b60405180910390f35b3480156104f157600080fd5b5061050c60048036038101906105079190612a05565b6111a0565b60405161051991906131bc565b60405180910390f35b34801561052e57600080fd5b5061054960048036038101906105449190612c80565b611234565b60405161055691906131d7565b60405180910390f35b34801561056b57600080fd5b50610586600480360381019061058191906129dc565b61146d565b005b60007f780e9d63000000000000000000000000000000000000000000000000000000007bffffffffffffffffffffffffffffffffffffffffffffffffffffffff1916827bffffffffffffffffffffffffffffffffffffffffffffffffffffffff191614806105fb57506105fa82611565565b5b9050919050565b60606000805461061190613740565b80601f016020809104026020016040519081016040528092919081815260200182805461063d90613740565b801561068a5780601f1061065f5761010080835404028352916020019161068a565b820191906000526020600020905b81548152906001019060200180831161066d57829003601f168201915b5050505050905090565b600061069f82611647565b6106de576040517f08c379a00000000000000000000000000000000000000000000000000000000081526004016106d5906133c5565b60405180910390fd5b6004600083815260200190815260200160002060009054906101000a900473ffffffffffffffffffffffffffffffffffffffff169050919050565b600061072482610e20565b90508073ffffffffffffffffffffffffffffffffffffffff168373ffffffffffffffffffffffffffffffffffffffff161415610795576040517f08c379a000000000000000000000000000000000000000000000000000000000815260040161078c90613425565b60405180910390fd5b8073ffffffffffffffffffffffffffffffffffffffff166107b46116b3565b73ffffffffffffffffffffffffffffffffffffffff1614806107e357506107e2816107dd6116b3565b6111a0565b5b610822576040517f08c379a000000000000000000000000000000000000000000000000000000000815260040161081990613345565b60405180910390fd5b61082c83836116bb565b505050565b6000600880549050905090565b61084f6108496116b3565b82611774565b61088e576040517f08c379a000000000000000000000000000000000000000000000000000000000815260040161088590613445565b60405180910390fd5b610899838383611852565b505050565b600b6020528060005260406000206000915090508060000180546108c190613740565b80601f01602080910402602001604051908101604052809291908181526020018280546108ed90613740565b801561093a5780601f1061090f5761010080835404028352916020019161093a565b820191906000526020600020905b81548152906001019060200180831161091d57829003601f168201915b50505050509080600101805461094f90613740565b80601f016020809104026020016040519081016040528092919081815260200182805461097b90613740565b80156109c85780601f1061099d576101008083540402835291602001916109c8565b820191906000526020600020905b8154815290600101906020018083116109ab57829003601f168201915b5050505050908060020180546109dd90613740565b80601f0160208091040260200160405190810160405280929190818152602001828054610a0990613740565b8015610a565780601f10610a2b57610100808354040283529160200191610a56565b820191906000526020600020905b815481529060010190602001808311610a3957829003601f168201915b5050505050905083565b6000610a6b83610ed2565b8210610aac576040517f08c379a0000000000000000000000000000000000000000000000000000000008152600401610aa390613245565b60405180910390fd5b600660008473ffffffffffffffffffffffffffffffffffffffff1673ffffffffffffffffffffffffffffffffffffffff168152602001908152602001600020600083815260200190815260200160002054905092915050565b6000610b0f610831565b905060008211610b1e57600080fd5b8166f5232269808000610b3191906135fc565b341015610b3d57600080fd5b600060405180606001604052808781526020018681526020018581525090506000600190505b838111610c645781600b60008386610b7b9190613575565b81526020019081526020016000206000820151816000019080519060200190610ba5929190612800565b506020820151816001019080519060200190610bc2929190612800565b506040820151816002019080519060200190610bdf929190612800565b50905050610bf8338285610bf39190613575565b611ab9565b3373ffffffffffffffffffffffffffffffffffffffff167f30385c845b448a36257a6a1716e6ad2e1bc2cbe333cde1e69fe849ad6511adfe8285610c3c9190613575565b604051610c499190613485565b60405180910390a28080610c5c906137a3565b915050610b63565b50505050505050565b610c756116b3565b73ffffffffffffffffffffffffffffffffffffffff16610c93611012565b73ffffffffffffffffffffffffffffffffffffffff1614610ce9576040517f08c379a0000000000000000000000000000000000000000000000000000000008152600401610ce0906133e5565b60405180910390fd5b6000610cf3611012565b73ffffffffffffffffffffffffffffffffffffffff1647604051610d1690613140565b60006040518083038185875af1925050503d8060008114610d53576040519150601f19603f3d011682016040523d82523d6000602084013e610d58565b606091505b5050905080610d6657600080fd5b50565b610d84838383604051806020016040528060008152506110e4565b505050565b6000610d93610831565b8210610dd4576040517f08c379a0000000000000000000000000000000000000000000000000000000008152600401610dcb90613465565b60405180910390fd5b60088281548110610e0e577f4e487b7100000000000000000000000000000000000000000000000000000000600052603260045260246000fd5b90600052602060002001549050919050565b6000806002600084815260200190815260200160002060009054906101000a900473ffffffffffffffffffffffffffffffffffffffff169050600073ffffffffffffffffffffffffffffffffffffffff168173ffffffffffffffffffffffffffffffffffffffff161415610ec9576040517f08c379a0000000000000000000000000000000000000000000000000000000008152600401610ec090613385565b60405180910390fd5b80915050919050565b60008073ffffffffffffffffffffffffffffffffffffffff168273ffffffffffffffffffffffffffffffffffffffff161415610f43576040517f08c379a0000000000000000000000000000000000000000000000000000000008152600401610f3a90613365565b60405180910390fd5b600360008373ffffffffffffffffffffffffffffffffffffffff1673ffffffffffffffffffffffffffffffffffffffff168152602001908152602001600020549050919050565b610f926116b3565b73ffffffffffffffffffffffffffffffffffffffff16610fb0611012565b73ffffffffffffffffffffffffffffffffffffffff1614611006576040517f08c379a0000000000000000000000000000000000000000000000000000000008152600401610ffd906133e5565b60405180910390fd5b6110106000611ad7565b565b6000600a60009054906101000a900473ffffffffffffffffffffffffffffffffffffffff16905090565b60606001805461104b90613740565b80601f016020809104026020016040519081016040528092919081815260200182805461107790613740565b80156110c45780601f10611099576101008083540402835291602001916110c4565b820191906000526020600020905b8154815290600101906020018083116110a757829003601f168201915b5050505050905090565b6110e06110d96116b3565b8383611b9d565b5050565b6110f56110ef6116b3565b83611774565b611134576040517f08c379a000000000000000000000000000000000000000000000000000000000815260040161112b90613445565b60405180910390fd5b61114084848484611d0a565b50505050565b606061115182611647565b611190576040517f08c379a000000000000000000000000000000000000000000000000000000000815260040161118790613405565b60405180910390fd5b61119982611234565b9050919050565b6000600560008473ffffffffffffffffffffffffffffffffffffffff1673ffffffffffffffffffffffffffffffffffffffff16815260200190815260200160002060008373ffffffffffffffffffffffffffffffffffffffff1673ffffffffffffffffffffffffffffffffffffffff16815260200190815260200160002060009054906101000a900460ff16905092915050565b60606000600b600084815260200190815260200160002060405180606001604052908160008201805461126690613740565b80601f016020809104026020016040519081016040528092919081815260200182805461129290613740565b80156112df5780601f106112b4576101008083540402835291602001916112df565b820191906000526020600020905b8154815290600101906020018083116112c257829003601f168201915b505050505081526020016001820180546112f890613740565b80601f016020809104026020016040519081016040528092919081815260200182805461132490613740565b80156113715780601f1061134657610100808354040283529160200191611371565b820191906000526020600020905b81548152906001019060200180831161135457829003601f168201915b5050505050815260200160028201805461138a90613740565b80601f01602080910402602001604051908101604052809291908181526020018280546113b690613740565b80156114035780601f106113d857610100808354040283529160200191611403565b820191906000526020600020905b8154815290600101906020018083116113e657829003601f168201915b5050505050815250509050611446816000015182602001518360400151604051602001611432939291906130c1565b604051602081830303815290604052611d66565b604051602001611456919061311e565b604051602081830303815290604052915050919050565b6114756116b3565b73ffffffffffffffffffffffffffffffffffffffff16611493611012565b73ffffffffffffffffffffffffffffffffffffffff16146114e9576040517f08c379a00000000000000000000000000000000000000000000000000000000081526004016114e0906133e5565b60405180910390fd5b600073ffffffffffffffffffffffffffffffffffffffff168173ffffffffffffffffffffffffffffffffffffffff161415611559576040517f08c379a000000000000000000000000000000000000000000000000000000000815260040161155090613285565b60405180910390fd5b61156281611ad7565b50565b60007f80ac58cd000000000000000000000000000000000000000000000000000000007bffffffffffffffffffffffffffffffffffffffffffffffffffffffff1916827bffffffffffffffffffffffffffffffffffffffffffffffffffffffff1916148061163057507f5b5e139f000000000000000000000000000000000000000000000000000000007bffffffffffffffffffffffffffffffffffffffffffffffffffffffff1916827bffffffffffffffffffffffffffffffffffffffffffffffffffffffff1916145b80611640575061163f82611f11565b5b9050919050565b60008073ffffffffffffffffffffffffffffffffffffffff166002600084815260200190815260200160002060009054906101000a900473ffffffffffffffffffffffffffffffffffffffff1673ffffffffffffffffffffffffffffffffffffffff1614159050919050565b600033905090565b816004600083815260200190815260200160002060006101000a81548173ffffffffffffffffffffffffffffffffffffffff021916908373ffffffffffffffffffffffffffffffffffffffff160217905550808273ffffffffffffffffffffffffffffffffffffffff1661172e83610e20565b73ffffffffffffffffffffffffffffffffffffffff167f8c5be1e5ebec7d5bd14f71427d1e84f3dd0314c0f7b2291e5b200ac8c7c3b92560405160405180910390a45050565b600061177f82611647565b6117be576040517f08c379a00000000000000000000000000000000000000000000000000000000081526004016117b590613325565b60405180910390fd5b60006117c983610e20565b90508073ffffffffffffffffffffffffffffffffffffffff168473ffffffffffffffffffffffffffffffffffffffff16148061183857508373ffffffffffffffffffffffffffffffffffffffff1661182084610694565b73ffffffffffffffffffffffffffffffffffffffff16145b80611849575061184881856111a0565b5b91505092915050565b8273ffffffffffffffffffffffffffffffffffffffff1661187282610e20565b73ffffffffffffffffffffffffffffffffffffffff16146118c8576040517f08c379a00000000000000000000000000000000000000000000000000000000081526004016118bf906132a5565b60405180910390fd5b600073ffffffffffffffffffffffffffffffffffffffff168273ffffffffffffffffffffffffffffffffffffffff161415611938576040517f08c379a000000000000000000000000000000000000000000000000000000000815260040161192f906132e5565b60405180910390fd5b611943838383611f7b565b61194e6000826116bb565b6001600360008573ffffffffffffffffffffffffffffffffffffffff1673ffffffffffffffffffffffffffffffffffffffff168152602001908152602001600020600082825461199e9190613656565b925050819055506001600360008473ffffffffffffffffffffffffffffffffffffffff1673ffffffffffffffffffffffffffffffffffffffff16815260200190815260200160002060008282546119f59190613575565b92505081905550816002600083815260200190815260200160002060006101000a81548173ffffffffffffffffffffffffffffffffffffffff021916908373ffffffffffffffffffffffffffffffffffffffff160217905550808273ffffffffffffffffffffffffffffffffffffffff168473ffffffffffffffffffffffffffffffffffffffff167fddf252ad1be2c89b69c2b068fc378daa952ba7f163c4a11628f55a4df523b3ef60405160405180910390a4611ab483838361208f565b505050565b611ad3828260405180602001604052806000815250612094565b5050565b6000600a60009054906101000a900473ffffffffffffffffffffffffffffffffffffffff16905081600a60006101000a81548173ffffffffffffffffffffffffffffffffffffffff021916908373ffffffffffffffffffffffffffffffffffffffff1602179055508173ffffffffffffffffffffffffffffffffffffffff168173ffffffffffffffffffffffffffffffffffffffff167f8be0079c531659141344cd1fd0a4f28419497f9722a3daafe3b4186f6b6457e060405160405180910390a35050565b8173ffffffffffffffffffffffffffffffffffffffff168373ffffffffffffffffffffffffffffffffffffffff161415611c0c576040517f08c379a0000000000000000000000000000000000000000000000000000000008152600401611c0390613305565b60405180910390fd5b80600560008573ffffffffffffffffffffffffffffffffffffffff1673ffffffffffffffffffffffffffffffffffffffff16815260200190815260200160002060008473ffffffffffffffffffffffffffffffffffffffff1673ffffffffffffffffffffffffffffffffffffffff16815260200190815260200160002060006101000a81548160ff0219169083151502179055508173ffffffffffffffffffffffffffffffffffffffff168373ffffffffffffffffffffffffffffffffffffffff167f17307eab39ab6107e8899845ad3d59bd9653f200f220920489ca2b5937696c3183604051611cfd91906131bc565b60405180910390a3505050565b611d15848484611852565b611d21848484846120ef565b611d60576040517f08c379a0000000000000000000000000000000000000000000000000000000008152600401611d5790613265565b60405180910390fd5b50505050565b6060600082511415611d8957604051806020016040528060008152509050611f0c565b6000604051806060016040528060408152602001613edc6040913990506000600360028551611db89190613575565b611dc291906135cb565b6004611dce91906135fc565b90506000602082611ddf9190613575565b67ffffffffffffffff811115611e1e577f4e487b7100000000000000000000000000000000000000000000000000000000600052604160045260246000fd5b6040519080825280601f01601f191660200182016040528015611e505781602001600182028036833780820191505090505b509050818152600183018586518101602084015b81831015611ecb576003830192508251603f8160121c1685015160f81b8252600182019150603f81600c1c1685015160f81b8252600182019150603f8160061c1685015160f81b8252600182019150603f811685015160f81b825260018201915050611e64565b600389510660018114611ee55760028114611ef557611f00565b613d3d60f01b6002830352611f00565b603d60f81b60018303525b50505050508093505050505b919050565b60007f01ffc9a7000000000000000000000000000000000000000000000000000000007bffffffffffffffffffffffffffffffffffffffffffffffffffffffff1916827bffffffffffffffffffffffffffffffffffffffffffffffffffffffff1916149050919050565b611f86838383612286565b600073ffffffffffffffffffffffffffffffffffffffff168373ffffffffffffffffffffffffffffffffffffffff161415611fc957611fc48161228b565b612008565b8173ffffffffffffffffffffffffffffffffffffffff168373ffffffffffffffffffffffffffffffffffffffff16146120075761200683826122d4565b5b5b600073ffffffffffffffffffffffffffffffffffffffff168273ffffffffffffffffffffffffffffffffffffffff16141561204b5761204681612441565b61208a565b8273ffffffffffffffffffffffffffffffffffffffff168273ffffffffffffffffffffffffffffffffffffffff1614612089576120888282612584565b5b5b505050565b505050565b61209e8383612603565b6120ab60008484846120ef565b6120ea576040517f08c379a00000000000000000000000000000000000000000000000000000000081526004016120e190613265565b60405180910390fd5b505050565b60006121108473ffffffffffffffffffffffffffffffffffffffff166127dd565b15612279578373ffffffffffffffffffffffffffffffffffffffff1663150b7a026121396116b3565b8786866040518563ffffffff1660e01b815260040161215b9493929190613170565b602060405180830381600087803b15801561217557600080fd5b505af19250505080156121a657506040513d601f19601f820116820180604052508101906121a39190612bac565b60015b612229573d80600081146121d6576040519150601f19603f3d011682016040523d82523d6000602084013e6121db565b606091505b50600081511415612221576040517f08c379a000000000000000000000000000000000000000000000000000000000815260040161221890613265565b60405180910390fd5b805181602001fd5b63150b7a0260e01b7bffffffffffffffffffffffffffffffffffffffffffffffffffffffff1916817bffffffffffffffffffffffffffffffffffffffffffffffffffffffff19161491505061227e565b600190505b949350505050565b505050565b6008805490506009600083815260200190815260200160002081905550600881908060018154018082558091505060019003906000526020600020016000909190919091505550565b600060016122e184610ed2565b6122eb9190613656565b90506000600760008481526020019081526020016000205490508181146123d0576000600660008673ffffffffffffffffffffffffffffffffffffffff1673ffffffffffffffffffffffffffffffffffffffff168152602001908152602001600020600084815260200190815260200160002054905080600660008773ffffffffffffffffffffffffffffffffffffffff1673ffffffffffffffffffffffffffffffffffffffff168152602001908152602001600020600084815260200190815260200160002081905550816007600083815260200190815260200160002081905550505b6007600084815260200190815260200160002060009055600660008573ffffffffffffffffffffffffffffffffffffffff1673ffffffffffffffffffffffffffffffffffffffff16815260200190815260200160002060008381526020019081526020016000206000905550505050565b600060016008805490506124559190613656565b90506000600960008481526020019081526020016000205490506000600883815481106124ab577f4e487b7100000000000000000000000000000000000000000000000000000000600052603260045260246000fd5b9060005260206000200154905080600883815481106124f3577f4e487b7100000000000000000000000000000000000000000000000000000000600052603260045260246000fd5b906000526020600020018190555081600960008381526020019081526020016000208190555060096000858152602001908152602001600020600090556008805480612568577f4e487b7100000000000000000000000000000000000000000000000000000000600052603160045260246000fd5b6001900381819060005260206000200160009055905550505050565b600061258f83610ed2565b905081600660008573ffffffffffffffffffffffffffffffffffffffff1673ffffffffffffffffffffffffffffffffffffffff168152602001908152602001600020600083815260200190815260200160002081905550806007600084815260200190815260200160002081905550505050565b600073ffffffffffffffffffffffffffffffffffffffff168273ffffffffffffffffffffffffffffffffffffffff161415612673576040517f08c379a000000000000000000000000000000000000000000000000000000000815260040161266a906133a5565b60405180910390fd5b61267c81611647565b156126bc576040517f08c379a00000000000000000000000000000000000000000000000000000000081526004016126b3906132c5565b60405180910390fd5b6126c860008383611f7b565b6001600360008473ffffffffffffffffffffffffffffffffffffffff1673ffffffffffffffffffffffffffffffffffffffff16815260200190815260200160002060008282546127189190613575565b92505081905550816002600083815260200190815260200160002060006101000a81548173ffffffffffffffffffffffffffffffffffffffff021916908373ffffffffffffffffffffffffffffffffffffffff160217905550808273ffffffffffffffffffffffffffffffffffffffff16600073ffffffffffffffffffffffffffffffffffffffff167fddf252ad1be2c89b69c2b068fc378daa952ba7f163c4a11628f55a4df523b3ef60405160405180910390a46127d96000838361208f565b5050565b6000808273ffffffffffffffffffffffffffffffffffffffff163b119050919050565b82805461280c90613740565b90600052602060002090601f01602090048101928261282e5760008555612875565b82601f1061284757805160ff1916838001178555612875565b82800160010185558215612875579182015b82811115612874578251825591602001919060010190612859565b5b5090506128829190612886565b5090565b5b8082111561289f576000816000905550600101612887565b5090565b60006128b66128b1846134c5565b6134a0565b9050828152602081018484840111156128ce57600080fd5b6128d98482856136fe565b509392505050565b60006128f46128ef846134f6565b6134a0565b90508281526020810184848401111561290c57600080fd5b6129178482856136fe565b509392505050565b60008135905061292e81613e7f565b92915050565b60008135905061294381613e96565b92915050565b60008135905061295881613ead565b92915050565b60008151905061296d81613ead565b92915050565b600082601f83011261298457600080fd5b81356129948482602086016128a3565b91505092915050565b600082601f8301126129ae57600080fd5b81356129be8482602086016128e1565b91505092915050565b6000813590506129d681613ec4565b92915050565b6000602082840312156129ee57600080fd5b60006129fc8482850161291f565b91505092915050565b60008060408385031215612a1857600080fd5b6000612a268582860161291f565b9250506020612a378582860161291f565b9150509250929050565b600080600060608486031215612a5657600080fd5b6000612a648682870161291f565b9350506020612a758682870161291f565b9250506040612a86868287016129c7565b9150509250925092565b60008060008060808587031215612aa657600080fd5b6000612ab48782880161291f565b9450506020612ac58782880161291f565b9350506040612ad6878288016129c7565b925050606085013567ffffffffffffffff811115612af357600080fd5b612aff87828801612973565b91505092959194509250565b60008060408385031215612b1e57600080fd5b6000612b2c8582860161291f565b9250506020612b3d85828601612934565b9150509250929050565b60008060408385031215612b5a57600080fd5b6000612b688582860161291f565b9250506020612b79858286016129c7565b9150509250929050565b600060208284031215612b9557600080fd5b6000612ba384828501612949565b91505092915050565b600060208284031215612bbe57600080fd5b6000612bcc8482850161295e565b91505092915050565b60008060008060808587031215612beb57600080fd5b600085013567ffffffffffffffff811115612c0557600080fd5b612c118782880161299d565b945050602085013567ffffffffffffffff811115612c2e57600080fd5b612c3a8782880161299d565b935050604085013567ffffffffffffffff811115612c5757600080fd5b612c638782880161299d565b9250506060612c74878288016129c7565b91505092959194509250565b600060208284031215612c9257600080fd5b6000612ca0848285016129c7565b91505092915050565b612cb28161368a565b82525050565b612cc18161369c565b82525050565b6000612cd282613527565b612cdc818561353d565b9350612cec81856020860161370d565b612cf5816138a8565b840191505092915050565b6000612d0b82613532565b612d158185613559565b9350612d2581856020860161370d565b612d2e816138a8565b840191505092915050565b6000612d4482613532565b612d4e818561356a565b9350612d5e81856020860161370d565b80840191505092915050565b6000612d7760098361356a565b9150612d82826138b9565b600982019050919050565b6000612d9a602b83613559565b9150612da5826138e2565b604082019050919050565b6000612dbd603283613559565b9150612dc882613931565b604082019050919050565b6000612de0602683613559565b9150612deb82613980565b604082019050919050565b6000612e03602583613559565b9150612e0e826139cf565b604082019050919050565b6000612e26601c83613559565b9150612e3182613a1e565b602082019050919050565b6000612e49602483613559565b9150612e5482613a47565b604082019050919050565b6000612e6c601983613559565b9150612e7782613a96565b602082019050919050565b6000612e8f60138361356a565b9150612e9a82613abf565b601382019050919050565b6000612eb2602c83613559565b9150612ebd82613ae8565b604082019050919050565b6000612ed5603883613559565b9150612ee082613b37565b604082019050919050565b6000612ef8602a83613559565b9150612f0382613b86565b604082019050919050565b6000612f1b602983613559565b9150612f2682613bd5565b604082019050919050565b6000612f3e60028361356a565b9150612f4982613c24565b600282019050919050565b6000612f61602083613559565b9150612f6c82613c4d565b602082019050919050565b6000612f84602c83613559565b9150612f8f82613c76565b604082019050919050565b6000612fa760128361356a565b9150612fb282613cc5565b601282019050919050565b6000612fca602083613559565b9150612fd582613cee565b602082019050919050565b6000612fed602f83613559565b9150612ff882613d17565b604082019050919050565b6000613010602183613559565b915061301b82613d66565b604082019050919050565b6000613033601d8361356a565b915061303e82613db5565b601d82019050919050565b600061305660008361354e565b915061306182613dde565b600082019050919050565b6000613079603183613559565b915061308482613de1565b604082019050919050565b600061309c602c83613559565b91506130a782613e30565b604082019050919050565b6130bb816136f4565b82525050565b60006130cc82612d6a565b91506130d88286612d39565b91506130e382612f9a565b91506130ef8285612d39565b91506130fa82612e82565b91506131068284612d39565b915061311182612f31565b9150819050949350505050565b600061312982613026565b91506131358284612d39565b915081905092915050565b600061314b82613049565b9150819050919050565b600060208201905061316a6000830184612ca9565b92915050565b60006080820190506131856000830187612ca9565b6131926020830186612ca9565b61319f60408301856130b2565b81810360608301526131b18184612cc7565b905095945050505050565b60006020820190506131d16000830184612cb8565b92915050565b600060208201905081810360008301526131f18184612d00565b905092915050565b600060608201905081810360008301526132138186612d00565b905081810360208301526132278185612d00565b9050818103604083015261323b8184612d00565b9050949350505050565b6000602082019050818103600083015261325e81612d8d565b9050919050565b6000602082019050818103600083015261327e81612db0565b9050919050565b6000602082019050818103600083015261329e81612dd3565b9050919050565b600060208201905081810360008301526132be81612df6565b9050919050565b600060208201905081810360008301526132de81612e19565b9050919050565b600060208201905081810360008301526132fe81612e3c565b9050919050565b6000602082019050818103600083015261331e81612e5f565b9050919050565b6000602082019050818103600083015261333e81612ea5565b9050919050565b6000602082019050818103600083015261335e81612ec8565b9050919050565b6000602082019050818103600083015261337e81612eeb565b9050919050565b6000602082019050818103600083015261339e81612f0e565b9050919050565b600060208201905081810360008301526133be81612f54565b9050919050565b600060208201905081810360008301526133de81612f77565b9050919050565b600060208201905081810360008301526133fe81612fbd565b9050919050565b6000602082019050818103600083015261341e81612fe0565b9050919050565b6000602082019050818103600083015261343e81613003565b9050919050565b6000602082019050818103600083015261345e8161306c565b9050919050565b6000602082019050818103600083015261347e8161308f565b9050919050565b600060208201905061349a60008301846130b2565b92915050565b60006134aa6134bb565b90506134b68282613772565b919050565b6000604051905090565b600067ffffffffffffffff8211156134e0576134df613879565b5b6134e9826138a8565b9050602081019050919050565b600067ffffffffffffffff82111561351157613510613879565b5b61351a826138a8565b9050602081019050919050565b600081519050919050565b600081519050919050565b600082825260208201905092915050565b600081905092915050565b600082825260208201905092915050565b600081905092915050565b6000613580826136f4565b915061358b836136f4565b9250827fffffffffffffffffffffffffffffffffffffffffffffffffffffffffffffffff038211156135c0576135bf6137ec565b5b828201905092915050565b60006135d6826136f4565b91506135e1836136f4565b9250826135f1576135f061381b565b5b828204905092915050565b6000613607826136f4565b9150613612836136f4565b9250817fffffffffffffffffffffffffffffffffffffffffffffffffffffffffffffffff048311821515161561364b5761364a6137ec565b5b828202905092915050565b6000613661826136f4565b915061366c836136f4565b92508282101561367f5761367e6137ec565b5b828203905092915050565b6000613695826136d4565b9050919050565b60008115159050919050565b60007fffffffff0000000000000000000000000000000000000000000000000000000082169050919050565b600073ffffffffffffffffffffffffffffffffffffffff82169050919050565b6000819050919050565b82818337600083830152505050565b60005b8381101561372b578082015181840152602081019050613710565b8381111561373a576000848401525b50505050565b6000600282049050600182168061375857607f821691505b6020821081141561376c5761376b61384a565b5b50919050565b61377b826138a8565b810181811067ffffffffffffffff8211171561379a57613799613879565b5b80604052505050565b60006137ae826136f4565b91507fffffffffffffffffffffffffffffffffffffffffffffffffffffffffffffffff8214156137e1576137e06137ec565b5b600182019050919050565b7f4e487b7100000000000000000000000000000000000000000000000000000000600052601160045260246000fd5b7f4e487b7100000000000000000000000000000000000000000000000000000000600052601260045260246000fd5b7f4e487b7100000000000000000000000000000000000000000000000000000000600052602260045260246000fd5b7f4e487b7100000000000000000000000000000000000000000000000000000000600052604160045260246000fd5b6000601f19601f8301169050919050565b7f7b226e616d65223a220000000000000000000000000000000000000000000000600082015250565b7f455243373231456e756d657261626c653a206f776e657220696e646578206f7560008201527f74206f6620626f756e6473000000000000000000000000000000000000000000602082015250565b7f4552433732313a207472616e7366657220746f206e6f6e20455243373231526560008201527f63656976657220696d706c656d656e7465720000000000000000000000000000602082015250565b7f4f776e61626c653a206e6577206f776e657220697320746865207a65726f206160008201527f6464726573730000000000000000000000000000000000000000000000000000602082015250565b7f4552433732313a207472616e736665722066726f6d20696e636f72726563742060008201527f6f776e6572000000000000000000000000000000000000000000000000000000602082015250565b7f4552433732313a20746f6b656e20616c7265616479206d696e74656400000000600082015250565b7f4552433732313a207472616e7366657220746f20746865207a65726f2061646460008201527f7265737300000000000000000000000000000000000000000000000000000000602082015250565b7f4552433732313a20617070726f766520746f2063616c6c657200000000000000600082015250565b7f222c2022696d616765223a22697066733a2f2f00000000000000000000000000600082015250565b7f4552433732313a206f70657261746f7220717565727920666f72206e6f6e657860008201527f697374656e7420746f6b656e0000000000000000000000000000000000000000602082015250565b7f4552433732313a20617070726f76652063616c6c6572206973206e6f74206f7760008201527f6e6572206e6f7220617070726f76656420666f7220616c6c0000000000000000602082015250565b7f4552433732313a2062616c616e636520717565727920666f7220746865207a6560008201527f726f206164647265737300000000000000000000000000000000000000000000602082015250565b7f4552433732313a206f776e657220717565727920666f72206e6f6e657869737460008201527f656e7420746f6b656e0000000000000000000000000000000000000000000000602082015250565b7f227d000000000000000000000000000000000000000000000000000000000000600082015250565b7f4552433732313a206d696e7420746f20746865207a65726f2061646472657373600082015250565b7f4552433732313a20617070726f76656420717565727920666f72206e6f6e657860008201527f697374656e7420746f6b656e0000000000000000000000000000000000000000602082015250565b7f222c20226465736372697074696f6e223a220000000000000000000000000000600082015250565b7f4f776e61626c653a2063616c6c6572206973206e6f7420746865206f776e6572600082015250565b7f4552433732314d657461646174613a2055524920717565727920666f72206e6f60008201527f6e6578697374656e7420746f6b656e0000000000000000000000000000000000602082015250565b7f4552433732313a20617070726f76616c20746f2063757272656e74206f776e6560008201527f7200000000000000000000000000000000000000000000000000000000000000602082015250565b7f646174613a6170706c69636174696f6e2f6a736f6e3b6261736536342c000000600082015250565b50565b7f4552433732313a207472616e736665722063616c6c6572206973206e6f74206f60008201527f776e6572206e6f7220617070726f766564000000000000000000000000000000602082015250565b7f455243373231456e756d657261626c653a20676c6f62616c20696e646578206f60008201527f7574206f6620626f756e64730000000000000000000000000000000000000000602082015250565b613e888161368a565b8114613e9357600080fd5b50565b613e9f8161369c565b8114613eaa57600080fd5b50565b613eb6816136a8565b8114613ec157600080fd5b50565b613ecd816136f4565b8114613ed857600080fd5b5056fe4142434445464748494a4b4c4d4e4f505152535455565758595a6162636465666768696a6b6c6d6e6f707172737475767778797a303132333435363738392b2fa26469706673582212206ce6e01d093e9bf3615a6113196c78a13d4e36e2e5b9ee5d0c01666f93e076b364736f6c63430008040033",
  "linkReferences": {},
  "deployedLinkReferences": {}
}